{
  "contractName": "Company",
  "abi": [
    {
      "inputs": [
        {
          "internalType": "address",
          "name": "_master",
          "type": "address"
        }
      ],
      "stateMutability": "nonpayable",
      "type": "constructor"
    },
    {
      "anonymous": false,
      "inputs": [
        {
          "indexed": true,
          "internalType": "address",
          "name": "master",
          "type": "address"
        }
      ],
      "name": "MasterSetup",
      "type": "event"
    },
    {
      "anonymous": false,
      "inputs": [
        {
          "indexed": true,
          "internalType": "address",
          "name": "owner",
          "type": "address"
        }
      ],
      "name": "OwnerAddition",
      "type": "event"
    },
    {
      "anonymous": false,
      "inputs": [
        {
          "indexed": true,
          "internalType": "address",
          "name": "owner",
          "type": "address"
        }
      ],
      "name": "OwnerRemoval",
      "type": "event"
    },
    {
      "anonymous": false,
      "inputs": [
        {
          "indexed": true,
          "internalType": "address",
          "name": "receiver",
          "type": "address"
        },
        {
          "indexed": false,
          "internalType": "uint256",
          "name": "amount",
          "type": "uint256"
        }
      ],
      "name": "Transfer",
      "type": "event"
    },
    {
      "inputs": [],
      "name": "master",
      "outputs": [
        {
          "internalType": "address",
          "name": "",
          "type": "address"
        }
      ],
      "stateMutability": "view",
      "type": "function",
      "constant": true
    },
    {
      "inputs": [
        {
          "internalType": "uint256",
          "name": "",
          "type": "uint256"
        }
      ],
      "name": "owners",
      "outputs": [
        {
          "internalType": "address",
          "name": "",
          "type": "address"
        }
      ],
      "stateMutability": "view",
      "type": "function",
      "constant": true
    },
    {
      "inputs": [],
      "name": "getMaster",
      "outputs": [
        {
          "internalType": "address",
          "name": "",
          "type": "address"
        }
      ],
      "stateMutability": "view",
      "type": "function",
      "constant": true
    },
    {
      "inputs": [
        {
          "internalType": "address",
          "name": "owner",
          "type": "address"
        }
      ],
      "name": "addOwner",
      "outputs": [],
      "stateMutability": "nonpayable",
      "type": "function"
    },
    {
      "inputs": [],
      "name": "getOwners",
      "outputs": [
        {
          "internalType": "address[]",
          "name": "",
          "type": "address[]"
        }
      ],
      "stateMutability": "view",
      "type": "function",
      "constant": true
    },
    {
      "inputs": [
        {
          "internalType": "address",
          "name": "owner",
          "type": "address"
        }
      ],
      "name": "checkIfOwner",
      "outputs": [
        {
          "internalType": "bool",
          "name": "",
          "type": "bool"
        }
      ],
      "stateMutability": "view",
      "type": "function",
      "constant": true
    },
    {
      "inputs": [
        {
          "internalType": "address",
          "name": "receiver",
          "type": "address"
        },
        {
          "internalType": "uint256",
          "name": "_share",
          "type": "uint256"
        }
      ],
      "name": "giveShare",
      "outputs": [],
      "stateMutability": "nonpayable",
      "type": "function"
    },
    {
      "inputs": [
        {
          "internalType": "address",
          "name": "receiver",
          "type": "address"
        },
        {
          "internalType": "uint256",
          "name": "_share",
          "type": "uint256"
        }
      ],
      "name": "addShare",
      "outputs": [],
      "stateMutability": "nonpayable",
      "type": "function"
    },
    {
      "inputs": [
        {
          "internalType": "address",
          "name": "owner",
          "type": "address"
        }
      ],
      "name": "removeOwner",
      "outputs": [],
      "stateMutability": "nonpayable",
      "type": "function"
    },
    {
      "inputs": [
        {
          "internalType": "address",
          "name": "user",
          "type": "address"
        }
      ],
      "name": "getShare",
      "outputs": [
        {
          "internalType": "uint256",
          "name": "",
          "type": "uint256"
        }
      ],
      "stateMutability": "view",
      "type": "function",
      "constant": true
    }
  ],
  "bytecode": "0x60806040523480156200001157600080fd5b506040516200181338038062001813833981810160405281019062000037919062000225565b600073ffffffffffffffffffffffffffffffffffffffff168173ffffffffffffffffffffffffffffffffffffffff1603620000a9576040517f08c379a0000000000000000000000000000000000000000000000000000000008152600401620000a090620002de565b60405180910390fd5b806000806101000a81548173ffffffffffffffffffffffffffffffffffffffff021916908373ffffffffffffffffffffffffffffffffffffffff16021790555062989680600360008060009054906101000a900473ffffffffffffffffffffffffffffffffffffffff1673ffffffffffffffffffffffffffffffffffffffff1673ffffffffffffffffffffffffffffffffffffffff1681526020019081526020016000208190555060008054906101000a900473ffffffffffffffffffffffffffffffffffffffff1673ffffffffffffffffffffffffffffffffffffffff167f6c950dc6c0a4b4c7d527e1da814cbc86207d620f6539d17cee4299bc3463a0a960405160405180910390a25062000300565b600080fd5b600073ffffffffffffffffffffffffffffffffffffffff82169050919050565b6000620001ed82620001c0565b9050919050565b620001ff81620001e0565b81146200020b57600080fd5b50565b6000815190506200021f81620001f4565b92915050565b6000602082840312156200023e576200023d620001bb565b5b60006200024e848285016200020e565b91505092915050565b600082825260208201905092915050565b7f4d617374657220616464726573732063616e6e6f742062652061207a65726f2060008201527f6164647265737300000000000000000000000000000000000000000000000000602082015250565b6000620002c660278362000257565b9150620002d38262000268565b604082019050919050565b60006020820190508181036000830152620002f981620002b7565b9050919050565b61150380620003106000396000f3fe608060405234801561001057600080fd5b506004361061009e5760003560e01c80637065cb48116100665780637065cb4814610159578063760db25f14610175578063a0e67e2b14610191578063c022eb28146101af578063ee97f7f3146101df5761009e565b8063025e7c27146100a3578063173825d9146100d35780634b3ab9c5146100ef57806350f4f9f81461011f5780635a99719e1461013b575b600080fd5b6100bd60048036038101906100b89190610e69565b6101fd565b6040516100ca9190610ed7565b60405180910390f35b6100ed60048036038101906100e89190610f1e565b61023c565b005b61010960048036038101906101049190610f1e565b610554565b6040516101169190610f5a565b60405180910390f35b61013960048036038101906101349190610f75565b61059d565b005b6101436108c3565b6040516101509190610ed7565b60405180910390f35b610173600480360381019061016e9190610f1e565b6108ec565b005b61018f600480360381019061018a9190610f75565b610a8c565b005b610199610d26565b6040516101a69190611073565b60405180910390f35b6101c960048036038101906101c49190610f1e565b610db4565b6040516101d691906110b0565b60405180910390f35b6101e7610e0a565b6040516101f49190610ed7565b60405180910390f35b6001818154811061020d57600080fd5b906000526020600020016000915054906101000a900473ffffffffffffffffffffffffffffffffffffffff1681565b60008054906101000a900473ffffffffffffffffffffffffffffffffffffffff1673ffffffffffffffffffffffffffffffffffffffff163373ffffffffffffffffffffffffffffffffffffffff161461029457600080fd5b600260008273ffffffffffffffffffffffffffffffffffffffff1673ffffffffffffffffffffffffffffffffffffffff16815260200190815260200160002060009054906101000a900460ff16610320576040517f08c379a00000000000000000000000000000000000000000000000000000000081526004016103179061114e565b60405180910390fd5b6000600260008373ffffffffffffffffffffffffffffffffffffffff1673ffffffffffffffffffffffffffffffffffffffff16815260200190815260200160002060006101000a81548160ff02191690831515021790555060005b6001808054905061038c919061119d565b8110156104c6578173ffffffffffffffffffffffffffffffffffffffff16600182815481106103be576103bd6111d1565b5b9060005260206000200160009054906101000a900473ffffffffffffffffffffffffffffffffffffffff1673ffffffffffffffffffffffffffffffffffffffff16036104b3576001808080549050610416919061119d565b81548110610427576104266111d1565b5b9060005260206000200160009054906101000a900473ffffffffffffffffffffffffffffffffffffffff1660018281548110610466576104656111d1565b5b9060005260206000200160006101000a81548173ffffffffffffffffffffffffffffffffffffffff021916908373ffffffffffffffffffffffffffffffffffffffff1602179055506104c6565b80806104be90611200565b91505061037b565b5060018054806104d9576104d8611248565b5b6001900381819060005260206000200160006101000a81549073ffffffffffffffffffffffffffffffffffffffff021916905590558073ffffffffffffffffffffffffffffffffffffffff167f8001553a916ef2f495d26a907cc54d96ed840d7bda71e73194bf5a9df7a76b9060405160405180910390a250565b6000600360008373ffffffffffffffffffffffffffffffffffffffff1673ffffffffffffffffffffffffffffffffffffffff168152602001908152602001600020549050919050565b600260003373ffffffffffffffffffffffffffffffffffffffff1673ffffffffffffffffffffffffffffffffffffffff16815260200190815260200160002060009054906101000a900460ff1680610640575060008054906101000a900473ffffffffffffffffffffffffffffffffffffffff1673ffffffffffffffffffffffffffffffffffffffff163373ffffffffffffffffffffffffffffffffffffffff16145b61067f576040517f08c379a0000000000000000000000000000000000000000000000000000000008152600401610676906112c3565b60405180910390fd5b80600360003373ffffffffffffffffffffffffffffffffffffffff1673ffffffffffffffffffffffffffffffffffffffff168152602001908152602001600020541015610701576040517f08c379a00000000000000000000000000000000000000000000000000000000081526004016106f890611355565b60405180910390fd5b600260008373ffffffffffffffffffffffffffffffffffffffff1673ffffffffffffffffffffffffffffffffffffffff16815260200190815260200160002060009054906101000a900460ff1661078d576040517f08c379a0000000000000000000000000000000000000000000000000000000008152600401610784906113e7565b60405180910390fd5b80600360003373ffffffffffffffffffffffffffffffffffffffff1673ffffffffffffffffffffffffffffffffffffffff168152602001908152602001600020546107d8919061119d565b600360003373ffffffffffffffffffffffffffffffffffffffff1673ffffffffffffffffffffffffffffffffffffffff1681526020019081526020016000208190555080600360008473ffffffffffffffffffffffffffffffffffffffff1673ffffffffffffffffffffffffffffffffffffffff168152602001908152602001600020600082825461086a9190611407565b925050819055508173ffffffffffffffffffffffffffffffffffffffff167f69ca02dd4edd7bf0a4abb9ed3b7af3f14778db5d61921c7dc7cd545266326de2826040516108b79190610f5a565b60405180910390a25050565b60008060009054906101000a900473ffffffffffffffffffffffffffffffffffffffff16905090565b60008054906101000a900473ffffffffffffffffffffffffffffffffffffffff1673ffffffffffffffffffffffffffffffffffffffff163373ffffffffffffffffffffffffffffffffffffffff161461094457600080fd5b6001600260008373ffffffffffffffffffffffffffffffffffffffff1673ffffffffffffffffffffffffffffffffffffffff16815260200190815260200160002060006101000a81548160ff0219169083151502179055506001819080600181540180825580915050600190039060005260206000200160009091909190916101000a81548173ffffffffffffffffffffffffffffffffffffffff021916908373ffffffffffffffffffffffffffffffffffffffff160217905550624c4b40600360008373ffffffffffffffffffffffffffffffffffffffff1673ffffffffffffffffffffffffffffffffffffffff168152602001908152602001600020819055508073ffffffffffffffffffffffffffffffffffffffff167ff39e6e1eb0edcf53c221607b54b00cd28f3196fed0a24994dc308b8f611b682d60405160405180910390a250565b600260003373ffffffffffffffffffffffffffffffffffffffff1673ffffffffffffffffffffffffffffffffffffffff16815260200190815260200160002060009054906101000a900460ff1680610b2f575060008054906101000a900473ffffffffffffffffffffffffffffffffffffffff1673ffffffffffffffffffffffffffffffffffffffff163373ffffffffffffffffffffffffffffffffffffffff16145b610b6e576040517f08c379a0000000000000000000000000000000000000000000000000000000008152600401610b65906112c3565b60405180910390fd5b80600360003373ffffffffffffffffffffffffffffffffffffffff1673ffffffffffffffffffffffffffffffffffffffff168152602001908152602001600020541015610bf0576040517f08c379a0000000000000000000000000000000000000000000000000000000008152600401610be7906114ad565b60405180910390fd5b80600360003373ffffffffffffffffffffffffffffffffffffffff1673ffffffffffffffffffffffffffffffffffffffff16815260200190815260200160002054610c3b919061119d565b600360003373ffffffffffffffffffffffffffffffffffffffff1673ffffffffffffffffffffffffffffffffffffffff1681526020019081526020016000208190555080600360008473ffffffffffffffffffffffffffffffffffffffff1673ffffffffffffffffffffffffffffffffffffffff1681526020019081526020016000206000828254610ccd9190611407565b925050819055508173ffffffffffffffffffffffffffffffffffffffff167f69ca02dd4edd7bf0a4abb9ed3b7af3f14778db5d61921c7dc7cd545266326de282604051610d1a9190610f5a565b60405180910390a25050565b60606001805480602002602001604051908101604052809291908181526020018280548015610daa57602002820191906000526020600020905b8160009054906101000a900473ffffffffffffffffffffffffffffffffffffffff1673ffffffffffffffffffffffffffffffffffffffff1681526020019060010190808311610d60575b5050505050905090565b6000600260008373ffffffffffffffffffffffffffffffffffffffff1673ffffffffffffffffffffffffffffffffffffffff16815260200190815260200160002060009054906101000a900460ff169050919050565b60008054906101000a900473ffffffffffffffffffffffffffffffffffffffff1681565b600080fd5b6000819050919050565b610e4681610e33565b8114610e5157600080fd5b50565b600081359050610e6381610e3d565b92915050565b600060208284031215610e7f57610e7e610e2e565b5b6000610e8d84828501610e54565b91505092915050565b600073ffffffffffffffffffffffffffffffffffffffff82169050919050565b6000610ec182610e96565b9050919050565b610ed181610eb6565b82525050565b6000602082019050610eec6000830184610ec8565b92915050565b610efb81610eb6565b8114610f0657600080fd5b50565b600081359050610f1881610ef2565b92915050565b600060208284031215610f3457610f33610e2e565b5b6000610f4284828501610f09565b91505092915050565b610f5481610e33565b82525050565b6000602082019050610f6f6000830184610f4b565b92915050565b60008060408385031215610f8c57610f8b610e2e565b5b6000610f9a85828601610f09565b9250506020610fab85828601610e54565b9150509250929050565b600081519050919050565b600082825260208201905092915050565b6000819050602082019050919050565b610fea81610eb6565b82525050565b6000610ffc8383610fe1565b60208301905092915050565b6000602082019050919050565b600061102082610fb5565b61102a8185610fc0565b935061103583610fd1565b8060005b8381101561106657815161104d8882610ff0565b975061105883611008565b925050600181019050611039565b5085935050505092915050565b6000602082019050818103600083015261108d8184611015565b905092915050565b60008115159050919050565b6110aa81611095565b82525050565b60006020820190506110c560008301846110a1565b92915050565b600082825260208201905092915050565b7f4f6e6c79206f776e6572732063616e2062652072656d6f7665642066726f6d2060008201527f6f776e6572206c69737400000000000000000000000000000000000000000000602082015250565b6000611138602a836110cb565b9150611143826110dc565b604082019050919050565b600060208201905081810360008301526111678161112b565b9050919050565b7f4e487b7100000000000000000000000000000000000000000000000000000000600052601160045260246000fd5b60006111a882610e33565b91506111b383610e33565b92508282039050818111156111cb576111ca61116e565b5b92915050565b7f4e487b7100000000000000000000000000000000000000000000000000000000600052603260045260246000fd5b600061120b82610e33565b91507fffffffffffffffffffffffffffffffffffffffffffffffffffffffffffffffff820361123d5761123c61116e565b5b600182019050919050565b7f4e487b7100000000000000000000000000000000000000000000000000000000600052603160045260246000fd5b7f4f6e6c79206d6173746572206f72206f776e6572730000000000000000000000600082015250565b60006112ad6015836110cb565b91506112b882611277565b602082019050919050565b600060208201905081810360008301526112dc816112a0565b9050919050565b7f53686172652065786365656473207468652073656e64657220616c6c6f77616e60008201527f6365000000000000000000000000000000000000000000000000000000000000602082015250565b600061133f6022836110cb565b915061134a826112e3565b604082019050919050565b6000602082019050818103600083015261136e81611332565b9050919050565b7f5468652072656365697069656e742073686f756c64206f6e6c79206265206f6e60008201527f65206f6620746865206f776e6572730000000000000000000000000000000000602082015250565b60006113d1602f836110cb565b91506113dc82611375565b604082019050919050565b60006020820190508181036000830152611400816113c4565b9050919050565b600061141282610e33565b915061141d83610e33565b92508282019050808211156114355761143461116e565b5b92915050565b7f5374616b652065786365656473207468652073656e64657220616c6c6f77616e60008201527f6365000000000000000000000000000000000000000000000000000000000000602082015250565b60006114976022836110cb565b91506114a28261143b565b604082019050919050565b600060208201905081810360008301526114c68161148a565b905091905056fea26469706673582212201b28a7fa46c1d97fb54d637f068a0e12b35cdea0e7beff68aa0566c0311c26fd64736f6c63430008100033",
  "immutableReferences": {},
  "source": "// SPDX-License-Identifier: MIT\npragma solidity ^0.8.9;\n\n    \ncontract Company {\n    \n    // Company contract.\n    // owners of the contract are the share holders of the company.\n\n    \n    address public master;\n    // List to keep track of all owner's address\n    address[] public owners;\n    // Mapping to keep track of all owners of the company\n    mapping(address => bool) isOwner;\n    // Mapping to keep track of all balance of share holders of the company\n    mapping(address => uint256) share;\n    \n    \n    // Events\n    event MasterSetup(address indexed master);\n    event OwnerAddition(address indexed owner);\n    event Transfer(address indexed receiver, uint256 amount);\n    event OwnerRemoval(address indexed owner);\n    \n    \n    modifier onlyMaster() {\n        require(msg.sender == address(master));\n        _;\n    }\n    modifier onlyOwners() {\n        require(isOwner[msg.sender], \"Only owner can be added\");\n        _;\n    }\n    modifier onlyAdmins() {\n        require(isOwner[msg.sender] || msg.sender == address(master), \"Only master or owners\");\n        _;\n    }\n    \n    /// @dev Constructor sets the master address of Company contract.\n    /// @param _master address to setup master \n    constructor(address _master) {\n        require(_master != address(0), \"Master address cannot be a zero address\");\n        master = _master;\n        share[master] = 10000000;\n        emit MasterSetup(master);\n    }\n    \n    /// @dev Returns the address of the master\n    function getMaster()\n        public\n        view\n        returns (address)\n    {\n        return master;\n    }\n    \n    /// @dev Adds owner if the msg.sender is master. Will revert otherwise.\n    /// @param owner Owner address to be added as owner.\n    function addOwner(address owner) \n        onlyMaster \n        public\n    {\n        isOwner[owner] = true;\n        owners.push(owner);\n        share[owner] = 5000000;\n        \n        emit OwnerAddition(owner);\n    }\n    \n    /// @dev Returns the owner list of this Company contract.\n    function getOwners()\n        public\n        view\n        returns (address[] memory)\n    {\n        return owners;\n    }\n    \n    /// @dev Returns whether the given address is owner or not.\n    /// @param owner Address to check if is owner.\n    function checkIfOwner(address owner)\n        public\n        view\n        returns (bool)\n    {\n        return isOwner[owner];\n    }\n\n    /// @dev Transfers owner's or master's share to any address given.\n    ///     Note: can only be called by one of the owners or master\n    /// @param receiver Address of the receiver who'll receive the share\n    /// @param _share Uint256 of the amount the admin wants to transfer\n    function giveShare(address receiver, uint256 _share)\n        public\n        onlyAdmins\n    {\n        require(share[msg.sender] >= _share, \"Stake exceeds the sender allowance\");\n        share[msg.sender] = share[msg.sender] - _share;\n        share[receiver] += _share;\n        \n        emit Transfer(receiver, _share);\n    }\n    \n    /// @dev Transfers owner's or master's stake(share) to an address in the owner list or master.\n    ///     Note: the recipient can only be one of the admins(owner or master)\n    /// @param receiver Address of the receipient\n    /// @param _share Uint256 amount of the stake(share) to transfer\n    function addShare(address receiver, uint256 _share)\n        public\n        onlyAdmins\n    {\n        require(share[msg.sender] >= _share, \"Share exceeds the sender allowance\");\n        require(isOwner[receiver], \"The receipient should only be one of the owners\");\n        share[msg.sender] = share[msg.sender] - _share;\n        share[receiver] += _share;\n        \n        emit Transfer(receiver, _share);\n    }\n    \n    /// @dev Removes an owner from the owner list. Can only be called by master. Will Revert otherwise\n    /// @param owner Address of the owner to be removed\n    function removeOwner(address owner)\n        public\n        onlyMaster\n    {\n        require(isOwner[owner], \"Only owners can be removed from owner list\");\n        isOwner[owner] = false;\n        for (uint i = 0; i < owners.length - 1; i++)\n            if (owners[i] == owner) {\n                owners[i] = owners[owners.length - 1];\n                break;\n            }\n        owners.pop();\n        \n        emit OwnerRemoval(owner);\n    }\n    function getShare(address user)\n        public\n        view\n        returns (uint256)\n    {\n        return share[user];\n    }\n}",
  "sourcePath": "/home/dhruv/Desktop/webdev/BlockChain/BEexp/smart-contract-deploying-testing/contracts/Company.sol",
  "compiler": {
    "name": "solc",
    "version": "0.8.16+commit.07a7930e.Emscripten.clang"
  },
  "schemaVersion": "3.4.1",
  "updatedAt": "2022-10-10T12:22:43.347Z",
  "networkType": "ethereum",
  "devdoc": {
    "kind": "dev",
    "methods": {
      "addOwner(address)": {
        "details": "Adds owner if the msg.sender is master. Will revert otherwise.",
        "params": {
          "owner": "Owner address to be added as owner."
        }
      },
      "addShare(address,uint256)": {
        "details": "Transfers owner's or master's stake(share) to an address in the owner list or master.     Note: the recipient can only be one of the admins(owner or master)",
        "params": {
          "_share": "Uint256 amount of the stake(share) to transfer",
          "receiver": "Address of the receipient"
        }
      },
      "checkIfOwner(address)": {
        "details": "Returns whether the given address is owner or not.",
        "params": {
          "owner": "Address to check if is owner."
        }
      },
      "constructor": {
        "details": "Constructor sets the master address of Company contract.",
        "params": {
          "_master": "address to setup master "
        }
      },
      "getMaster()": {
        "details": "Returns the address of the master"
      },
      "getOwners()": {
        "details": "Returns the owner list of this Company contract."
      },
      "giveShare(address,uint256)": {
        "details": "Transfers owner's or master's share to any address given.     Note: can only be called by one of the owners or master",
        "params": {
          "_share": "Uint256 of the amount the admin wants to transfer",
          "receiver": "Address of the receiver who'll receive the share"
        }
      },
      "removeOwner(address)": {
        "details": "Removes an owner from the owner list. Can only be called by master. Will Revert otherwise",
        "params": {
          "owner": "Address of the owner to be removed"
        }
      }
    },
    "version": 1
  },
  "userdoc": {
    "kind": "user",
    "methods": {},
    "version": 1
  }
}